:100000000C942A000C9492000C94C9000C940001EA
:100010000C9447000C9447000C94CD090C944700B5
:100020000C9447000C9447000C945F090C949609BB
:100030000C9447000C9447000C9447000C94470024
:100040000C9449000C9447000C9447000C94470012
:100050000C94470011241FBECFE5D8E0DEBFCDBF12
:1000600010E0A0E6B0E0E0E6F6E102C005900D92F7
:10007000A837B107D9F720E0A8E7B0E001C01D928A
:10008000A139B207E1F70E9452070C942E0B0C9491
:1000900000001F920F9200905F000F9211242F9387
:1000A0003F934F935F936F937F938F939F93AF9300
:1000B000BF93EF93FF93CF93DF93CDB7DEB78091DC
:1000C00078009091790024E230E0F90120813181BB
:1000D000FC013183208380917A0090917B00FC01A8
:1000E000099581E08093600086E290E026E230E0AE
:1000F000F9012081277FFC0120830000DF91CF914F
:10010000FF91EF91BF91AF919F918F917F916F91EF
:100110005F914F913F912F910F9000925F000F9050
:100120001F9018951F920F9200905F000F9211245C
:100130002F933F934F935F936F937F938F939F93EF
:10014000AF93BF93EF93FF93CF93DF93CDB7DEB71A
:1001500080917C0090917D00892B31F080917C0012
:1001600090917D00FC0109950000DF91CF91FF91F6
:10017000EF91BF91AF919F918F917F916F915F911F
:100180004F913F912F910F9000925F000F901F9021
:1001900018951F920F9200905F000F9211242F93D9
:1001A0003F934F935F936F937F938F939F93AF93FF
:1001B000BF93EF93FF93CF93DF93CDB7DEB78091DB
:1001C0007C0090917D00892B31F080917E00909190
:1001D0007F00FC0109950000DF91CF91FF91EF9125
:1001E000BF91AF919F918F917F916F915F914F914F
:1001F0003F912F910F9000925F000F901F901895E4
:100200001F920F9200905F000F9211242F933F9343
:100210004F935F936F937F938F939F93AF93BF930E
:10022000EF93FF93CF93DF93CDB7DEB780917C0040
:1002300090917D00892B31F0809180009091810018
:10024000FC0109950000DF91CF91FF91EF91BF91E3
:10025000AF919F918F917F916F915F914F913F915E
:100260002F910F9000925F000F901F901895CF93E1
:10027000DF93CDB7DEB78FE590E02FE530E0F901F1
:1002800020812068FC0120830000DF91CF91089538
:100290000F931F93CF93DF93CDB7DEB7C654D10929
:1002A0000FB6F894DEBF0FBECDBF80E090E0ACE0AB
:1002B000B2E489839A83AB83BC8320E030E04AE7D1
:1002C00053E469817A818B819C810E94B20ADC01AE
:1002D000CB019E01235C3F4FF90180839183A28370
:1002E000B38320E030E040E85FE3CE01CD96FC012F
:1002F00060817181828193810E94040A88234CF479
:10030000CE018F5B9F4F21E030E0FC0131832083E1
:1003100067C020E03FEF4FE757E4CE01CD96FC01E8
:1003200060817181828193810E94AD0A18160CF060
:1003300046C020E030E040E251E469817A818B815F
:100340009C810E94B20ADC01CB018E010F5B1F4F22
:10035000BC01CD010E94090ADC01CB01F8019183A7
:10036000808324C0CE018D5B9F4F29E130E0FC01EA
:1003700031832083CE018D5B9F4FFC018081918171
:100380000197F1F79E012D5B3F4FF9019183808327
:10039000CE018F5B9F4F9E012F5B3F4FF901208164
:1003A000318121503109FC0131832083CE018F5BE3
:1003B0009F4FFC0180819181892BA1F62BC08E017A
:1003C0000F5B1F4FCE01CD96FC0160817181828150
:1003D00093810E94090ADC01CB01F801918380839B
:1003E000CE018B5B9F4F9E012F5B3F4FF901208118
:1003F0003181FC0131832083CE018B5B9F4FFC0157
:10040000808191810197F1F79E012B5B3F4FF901AC
:100410009183808388E30E94EB0380E090E0A0E872
:10042000BFE38D839E83AF83B88720E030E04AE747
:1004300053E46D817E818F8198850E94B20ADC0130
:10044000CB018BAB9CABADABBEAB20E030E040E86A
:100450005FE36BA97CA98DA99EA90E94040A882349
:100460002CF481E090E098AF8FAB3FC020E03FEFED
:100470004FE757E46BA97CA98DA99EA90E94AD0AFC
:1004800018164CF520E030E040E251E46D817E81A9
:100490008F8198850E94B20ADC01CB01BC01CD019D
:1004A0000E94090ADC01CB0198AF8FAB0FC089E134
:1004B00090E09AAF89AF89AD9AAD0197F1F79AAF05
:1004C00089AF8FA998AD019798AF8FAB8FA998ADE1
:1004D000892B69F714C06BA97CA98DA99EA90E94DC
:1004E000090ADC01CB0198AF8FAB8FA998AD9CAF07
:1004F0008BAF8BAD9CAD0197F1F79CAF8BAF8CE0D0
:100500000E94EB0380E090E0A0E8BFE389879A8730
:10051000AB87BC8720E030E04AE753E469857A8501
:100520008B859C850E94B20ADC01CB0189A79AA722
:10053000ABA7BCA720E030E040E85FE369A57AA55F
:100540008BA59CA50E94040A88232CF481E090E0EE
:100550009EA78DA73FC020E03FEF4FE757E469A576
:100560007AA58BA59CA50E94AD0A18164CF520E033
:1005700030E040E251E469857A858B859C850E9454
:10058000B20ADC01CB01BC01CD010E94090ADC01E9
:10059000CB019EA78DA70FC089E190E098AB8FA7F4
:1005A0008FA598A90197F1F798AB8FA78DA59EA568
:1005B00001979EA78DA78DA59EA5892B69F714C0CD
:1005C00069A57AA58BA59CA50E94090ADC01CB012F
:1005D0009EA78DA78DA59EA59AAB89AB89A99AA93F
:1005E0000197F1F79AAB89AB81E00E94EB0380E0C1
:1005F00090E0A0E0B0E48D879E87AF87B88B20E0C5
:1006000030E04AE753E46D857E858F8598890E94A6
:10061000B20ADC01CB018F8F98A3A9A3BAA320E073
:1006200030E040E85FE36F8D78A189A19AA10E9434
:10063000040A88232CF481E090E09CA38BA33FC0A4
:1006400020E03FEF4FE757E46F8D78A189A19AA191
:100650000E94AD0A18164CF520E030E040E251E46B
:100660006D857E858F8598890E94B20ADC01CB0159
:10067000BC01CD010E94090ADC01CB019CA38BA324
:100680000FC089E190E09EA38DA38DA19EA101974B
:10069000F1F79EA38DA38BA19CA101979CA38BA393
:1006A0008BA19CA1892B69F714C06F8D78A189A1BA
:1006B0009AA10E94090ADC01CB019CA38BA38BA108
:1006C0009CA198A78FA38FA198A50197F1F798A750
:1006D0008FA386E00E94EB0380E090E0A0E8BFE3F8
:1006E000898B9A8BAB8BBC8B20E030E04AE753E4DC
:1006F00069897A898B899C890E94B20ADC01CB01C5
:100700008D8B9E8BAF8BB88F20E030E040E85FE3AD
:100710006D897E898F89988D0E94040A88232CF424
:1007200081E090E09A8F898F3FC020E03FEF4FE754
:1007300057E46D897E898F89988D0E94AD0A1816BD
:100740004CF520E030E040E251E469897A898B89F8
:100750009C890E94B20ADC01CB01BC01CD010E9440
:10076000090ADC01CB019A8F898F0FC089E190E0E3
:100770009C8F8B8F8B8D9C8D0197F1F79C8F8B8F2E
:10078000898D9A8D01979A8F898F898D9A8D892B62
:1007900069F714C06D897E898F89988D0E94090A36
:1007A000DC01CB019A8F898F898D9A8D9E8F8D8FD9
:1007B0008D8D9E8D0197F1F79E8F8D8F0000CA5B06
:1007C000DF4F0FB6F894DEBF0FBECDBFDF91CF91E4
:1007D0001F910F910895CF93DF931F92CDB7DEB78E
:1007E00089838BE390E02BE330E0F90120812F7DBA
:1007F000FC0120838BE390E02BE330E0F9012081C2
:100800002F7BFC01208385E390E02981FC0120837C
:100810000E94760400000F90DF91CF910895CF934E
:10082000DF931F92CDB7DEB789838BE390E02BE394
:1008300030E0F90120812062FC0120838BE390E00D
:100840002BE330E0F90120812F7BFC01208385E33D
:1008500090E02981FC0120830E94760400000F9023
:10086000DF91CF910895CF93DF9300D000D0CDB723
:10087000DEB79A8389836B834C832AC08B8188235C
:1008800029F48C8180580E94EB0307C08B81813052
:1008900021F48C8180540E94EB0389819A81FC01B0
:1008A00080810E940F0489819A8101969A838983AD
:1008B0008C818F5F8C838B81882351F48C81803174
:1008C00039F481E08B831C828C8180540E94EB037D
:1008D00089819A81FC018081882381F600000F9034
:1008E0000F900F900F90DF91CF910895CF93DF93EA
:1008F000CDB7DEB72E970FB6F894DEBF0FBECDBFD3
:100900008BE390E02BE330E0F90120812068FC01CB
:10091000208380E090E0A0E8BFE389839A83AB83E3
:10092000BC8320E030E04AE753E469817A818B811F
:100930009C810E94B20ADC01CB018D839E83AF8330
:10094000B88720E030E040E85FE36D817E818F81F1
:1009500098850E94040A88232CF481E090E09A870D
:1009600089873FC020E03FEF4FE757E46D817E81EC
:100970008F8198850E94AD0A18164CF520E030E072
:1009800040E251E469817A818B819C810E94B20AA4
:10099000DC01CB01BC01CD010E94090ADC01CB01C5
:1009A0009A8789870FC089E190E09C878B878B8528
:1009B0009C850197F1F79C878B8789859A8501979C
:1009C0009A87898789859A85892B69F714C06D81F3
:1009D0007E818F8198850E94090ADC01CB019A876C
:1009E000898789859A859E878D878D859E850197C4
:1009F000F1F79E878D878BE390E02BE330E0F901E0
:100A000020812F77FC01208300002E960FB6F894EA
:100A1000DEBF0FBECDBFDF91CF910895CF93DF939F
:100A200000D01F92CDB7DEB78A836B838A8188237B
:100A300069F480E80E94EB038A81982F9295990FC0
:100A4000990F907C8B81890F89830FC08A818130B7
:100A500061F480EC0E94EB038A81982F9295990FA4
:100A6000990F907C8B81890F898300000F900F90E4
:100A70000F90DF91CF910895CF93DF93CDB7DEB77D
:100A80002B970FB6F894DEBF0FBECDBF9A8789872C
:100A90006B878B85882F90E08330910521F0059737
:100AA00009F476C0F5C189859A85969587959695BE
:100AB00087959C01ABE7B4E10E941F0B9695879543
:100AC00089838981805D898389810E940F0449859A
:100AD0005A85CA0196958795969587959C01ABE7AF
:100AE000B4E10E941F0B9695879564E6689F90017C
:100AF000699F300D1124CA01821B930B9C01ADEC40
:100B0000BCEC0E941F0B96958795969587959695B8
:100B100087958A838A81805D8A838A810E940F04F7
:100B2000E985FA85CF0196958795969587959C01DD
:100B3000ABE7B4E10E941F0BAC015695479524E644
:100B4000249FC001259F900D1124AF01481B590B14
:100B50009A01ADECBCEC0E941F0B9695879596957B
:100B6000879596958795880F991F9C01220F331FB3
:100B7000220F331F820F931F9A01281B390BC901C3
:100B80008B838B81805D8B838B810E940F0480C15E
:100B900089859A85929582958F7089279F7089277C
:100BA0009C01A7E4B3E00E941F0B9695879596954C
:100BB0008795969587958C838C81805D8C838C81BD
:100BC0000E940F0449855A85CA01929582958F70BB
:100BD00089279F7089279C01A7E4B3E00E941F0B1F
:100BE00096958795969587959695879560E177E296
:100BF000869F9001879F300D969F300D1124CA016A
:100C0000821B930B969587959695879596958795D4
:100C10009C01A5ECB0E20E941F0B929582958F700B
:100C200089279F7089278D838D81805D8D838D813C
:100C30000E940F04E985FA85CF01929582958F7005
:100C400089279F7089279C01A7E4B3E00E941F0BAE
:100C5000AC0156954795569547955695479520E191
:100C600037E2429FC001439F900D529F900D112487
:100C7000AF01481B590BCA019695879596958795A4
:100C8000969587959C01A5ECB0E20E941F0B92956A
:100C900082958F7089279F70892768EE73E0869F01
:100CA0009001879F300D969F300D1124CA01821B41
:100CB000930B96958795969587959C01ABE7B4E144
:100CC0000E941F0B969587958E838E81805D8E8303
:100CD0008E810E940F0449855A85CA01929582959A
:100CE0008F7089279F7089279C01A7E4B3E00E9439
:100CF0001F0BFC01F695E795F695E795F695E795B8
:100D000020E137E2E29FC001E39F900DF29F900D3A
:100D10001124FA01E81BF90BCF019695879596955A
:100D20008795969587959C01A5ECB0E20E941F0BD4
:100D3000AC01529542954F7045275F70452728EECC
:100D400033E0429FC001439F900D529F900D1124AC
:100D5000AF01481B590BCA019695879596958795C3
:100D60009C01ABE7B4E10E941F0B9695879564E662
:100D7000689F9001699F300D1124CA01821B930B5B
:100D80009C01ADECBCEC0E941F0B96958795969547
:100D90008795969587958F838F81805D8F838F81CF
:100DA0000E940F0449855A85CA01929582958F70D9
:100DB00089279F7089279C01A7E4B3E00E941F0B3D
:100DC000FC01F695E795F695E795F695E79520E110
:100DD00037E2E29FC001E39F900DF29F900D112436
:100DE000FA01E81BF90BCF019695879596958795A3
:100DF000969587959C01A5ECB0E20E941F0BAC0173
:100E0000529542954F7045275F70452728EE33E095
:100E1000429FC001439F900D529F900D1124AF013E
:100E2000481B590BCA0196958795969587959C0105
:100E3000ABE7B4E10E941F0BFC01F695E79524E6B1
:100E40002E9FC0012F9F900D1124FA01E81BF90B72
:100E50009F01ADECBCEC0E941F0B96958795969573
:100E6000879596958795880F991F9C01220F331FB0
:100E7000220F331F820F931F9F01281B390BC901BB
:100E800088878885805D888788850E940F04000098
:100E900000002B960FB6F894DEBF0FBECDBFDF91DA
:100EA000CF910895CF93DF93CDB7DEB70E94E307CC
:100EB00080E997E00E940D090E944D0881E00E94A0
:100EC000E30880E00E942A090E940F080E9448015E
:100ED0000E94370189E10E94AF0860E080E00E9433
:100EE0000E0540E060E081E690E00E9433048091CE
:100EF00082009091830063E00E943C0560E081E005
:100F00000E940E0540E061E08EE690E00E9433040E
:100F1000809184009091850063E00E943C05DDCFC4
:100F2000CF93DF93CDB7DEB7809186008F5F80933C
:100F3000860080918600813039F40E945309909395
:100F40008800809387003BC0809186008230D1F476
:100F50000E94530990938A00809389002091890010
:100F600030918A008091870090918800A901481BE8
:100F7000590BCA01909383008093820080E00E9405
:100F8000E3081DC0809186008330C9F40E94530994
:100F900090938C0080938B0020918B0030918C007B
:100FA0008091890090918A00A901481B590BCA01C0
:100FB000909385008093840081E00E942A090000BC
:100FC000DF91CF910895CF93DF93CDB7DEB78AE35A
:100FD00090E02FEFFC01208387E390E02FEFFC01EE
:100FE000208384E390E02FEFFC01208381E390E0F5
:100FF0002FEBFC0120838BE390E0FC01108288E35F
:1010000090E0FC01108285E390E0FC01108282E315
:1010100090E0FC0110820000DF91CF910895CF9302
:10102000DF93CDB7DEB783E590E023E530E0F9014B
:1010300020812860FC01208383E590E023E530E0F7
:10104000F90120812064FC01208389E590E029E5F5
:1010500030E0F90120812E7FFC01208389E590E0BA
:1010600029E530E0F90120812D7FFC01208383E513
:1010700090E023E530E0F9012081287FFC01208306
:1010800083E590E023E530E0F90120812260FC0156
:1010900020830000DF91CF910895CF93DF93CDB7E8
:1010A000DEB78FE490E02FE430E0F90120812E7F5D
:1010B000FC0120838FE490E02FE430E0F9012081EF
:1010C0002D7FFC0120838EE490E02EE430E0F901D6
:1010D0002081277FFC0120838EE490E02EE430E025
:1010E000F90120812F7EFC01208389E590E029E52C
:1010F00030E0F90120812F7DFC01208389E590E01B
:1011000029E530E0F90120812F7EFC01208389E56B
:1011100090E029E530E0F9012081277FFC01208360
:1011200089E590E029E530E0F90120812B7FFC0181
:1011300020838EE490E02EE430E0F9012081287FC6
:10114000FC0120838EE490E02EE430E0F901208160
:101150002260FC0120830000DF91CF910895CF939E
:10116000DF9300D0CDB7DEB78A8383E590E023E537
:1011700030E0F90120812F7EFC01208383E590E09F
:1011800023E530E0F90120812062FC0120838A817F
:10119000882F90E0982F8827969587959695879524
:1011A0009C01ABE7B4E10E941F0B9695879589835C
:1011B0008CE590E02981FC01208300000F900F90C6
:1011C000DF91CF910895CF93DF9300D0CDB7DEB7F5
:1011D0008A8319828A81882F90E0009761F00197B5
:1011E000A1F48EE490E02EE430E0F9012081206447
:1011F000FC0120830CC08EE490E02EE430E0F90185
:1012000020812F7BFC01208302C081E089838981BA
:101210000F900F90DF91CF910895CF93DF9300D07F
:101220001F92CDB7DEB79B838A8319828A819B8107
:10123000892B39F08A819B819093900080938F0055
:1012400002C081E0898389810F900F900F90DF9118
:10125000CF910895CF93DF9300D0CDB7DEB78A83C7
:1012600019828A81882F90E0009719F0019759F030
:1012700014C089E590E029E530E0F9012081206281
:10128000FC0120830AC089E590E029E530E0F901FE
:1012900020812F7DFC012083000000000F900F9023
:1012A000DF91CF910895CF93DF93CDB7DEB78CE474
:1012B00090E0FC0180819181DF91CF9108951F9290
:1012C0000F9200905F000F9211242F933F934F9342
:1012D0005F936F937F938F939F93AF93BF93EF939E
:1012E000FF93CF93DF93CDB7DEB780918D009091C0
:1012F0008E00892B31F080918D0090918E00FC0141
:1013000009950000DF91CF91FF91EF91BF91AF91CF
:101310009F918F917F916F915F914F913F912F910D
:101320000F9000925F000F901F9018951F920F92E0
:1013300000905F000F9211242F933F934F935F9380
:101340006F937F938F939F93AF93BF93EF93FF938D
:10135000CF93DF93CDB7DEB780918D0090918E0053
:10136000892B31F080918D0090918E00FC010995C0
:101370000000DF91CF91FF91EF91BF91AF919F91CD
:101380008F917F916F915F914F913F912F910F902E
:1013900000925F000F901F9018951F920F9200907F
:1013A0005F000F9211242F933F934F935F936F939E
:1013B0007F938F939F93AF93BF93EF93FF93CF93BD
:1013C000DF93CDB7DEB780918F0090919000892B8D
:1013D00031F080918F0090919000FC010995000000
:1013E000DF91CF91FF91EF91BF91AF919F918F913D
:1013F0007F916F915F914F913F912F910F9000924C
:101400005F000F901F9018950E94380A08F481E041
:1014100008950E948C0A88F09F5798F0B92F992759
:10142000B751B0F0E1F0660F771F881F991F1AF0CF
:10143000BA95C9F714C0B13091F00E94A60AB1E084
:1014400008950C94A60A672F782F8827B85F39F083
:10145000B93FCCF3869577956795B395D9F73EF468
:1014600090958095709561957F4F8F4F9F4F089510
:10147000990F0008550FAA0BE0E8FEEF16161706A5
:10148000E807F907C0F012161306E407F50798F00D
:10149000621B730B840B950B39F40A2661F0232B26
:1014A000242B252B21F408950A2609F4A140A695A2
:1014B0008FEF811D811D089597F99F6780E870E087
:1014C00060E008959FEF80EC089500240A941616BA
:1014D000170618060906089500240A941216130622
:1014E000140605060895092E0394000C11F48823B0
:1014F00052F0BB0F40F4BF2B11F460FF04C06F5FCC
:101500007F4F8F4F9F4F089557FD9058440F551FA1
:1015100059F05F3F71F04795880F97FB991F61F075
:101520009F3F79F087950895121613061406551FEC
:10153000F2CF4695F1DF08C0161617061806991F58
:10154000F1CF86957105610508940895E894BB274D
:1015500066277727CB0197F908950E94380A08F487
:101560008FEF08950E94C50A0C94730A0E94650AC1
:1015700038F00E946C0A20F0952311F00C945C0A5C
:101580000C94620A11240C94A70A0E94840A70F336
:10159000959FC1F3950F50E0551F629FF001729F18
:1015A000BB27F00DB11D639FAA27F00DB11DAA1F27
:1015B000649F6627B00DA11D661F829F2227B00D74
:1015C000A11D621F739FB00DA11D621F839FA00DFF
:1015D000611D221F749F3327A00D611D231F849F4F
:1015E000600D211D822F762F6A2F11249F575040A6
:1015F0009AF0F1F088234AF0EE0FFF1FBB1F661F21
:10160000771F881F91505040A9F79E3F510580F0E9
:101610000C945C0A0C94A70A5F3FE4F3983ED4F361
:10162000869577956795B795F795E7959F5FC1F78D
:10163000FE2B880F911D9695879597F90895A29F87
:10164000B001B39FC001A39F700D811D1124911D96
:10165000B29F700D811D1124911D0895F894FFCF44
:1016600001706572696F647469636B733D006F6EBE
:081670007469636B733D000017
:00000001FF
