S01100005350495F534C4156452E737265634D
S11300000C942A000C9434000C9434000C943400A6
S11300100C9434000C9434000C9434000C9434008C
S11300200C9434000C9434000C9434000C9434007C
S11300300C9434000C9434000C9434000C9434006C
S11300400C9434000C9434000C9434000C9434005C
S11300500C94340011241FBECFE5D8E0DEBFCDBF21
S11300600E9436000C9461000C9400000E94490028
S11300700E9455008AE00E945C00EFE1FEE43197A3
S1130080F1F700C000008130A9F78BB381608BBB0E
S1130090F1CF8FEF8ABB90E497BB84BB8EEB81BB1F
S11300A01BBA18BA15BA12BA08958DB18F7E8DB9DC
S11300B08DB180648DB908958FB9779BFECF8FB1D0
S10900C00895F894FFCF3F
S9030000FC
