S00B00005744542E737265632A
S11300000C9432000C943C000C943C000C943C0086
S11300100C943C000C943C000C943C000C943C006C
S11300200C943C000C943C000C943C000C943C005C
S11300300C943C000C943C000C943C000C943C004C
S11300400C943C000C943C000C943C000C943C003C
S11300500C943C00E800EB00EF00F300F700FB0019
S1130060FF00030111241FBECFE5D8E0DEBFCDBFE2
S11300700E94AB000C9411010C940000813001F13A
S113008030F08230B1F1833009F44CC0089541302E
S113009059F42BB381E090E002C0880F991F6A9550
S11300A0E2F7822B8BBB08952BB381E090E002C072
S11300B0880F991F6A95E2F7809582238BBB089578
S11300C0413059F428B381E090E002C0880F991FB1
S11300D06A95E2F7822B88BB089528B381E090E00B
S11300E002C0880F991F6A95E2F78095822388BB26
S11300F00895413059F425B381E090E002C0880F9F
S1130100991F6A95E2F7822B85BB089525B381E098
S113011090E002C0880F991F6A95E2F780958223C8
S113012085BB0895413059F422B381E090E002C0C8
S1130130880F991F6A95E2F7822B82BB089522B338
S113014081E090E002C0880F991F6A95E2F78095DC
S1130150822382BB08950E94CF0041E060E080E0EA
S11301600E943E002FEF80E792E0215080409040B3
S1130170E1F700C0000040E060E080E00E943E0043
S11301802FEF80E792E0215080409040E1F700C0DB
S113019000000E94070186E00E94DA00FFCF8FEF83
S11301A08ABB87BB84BB8FEB81BB1BBA18BA15BA59
S11301B012BA0895E82F81B5887F81BD8E2F90E013
S11301C08830910518F5FC01E65DFF4F0C940B0196
S11301D081B581BD089581B5816081BD089581B5E2
S11301E0826081BD089581B5836081BD089581B524
S11301F0846081BD089581B5856081BD089581B510
S1130200866081BD089581B5876081BD089581B5FB
S1130210886081BD0895EE0FFF1F0590F491E02DD5
S10902200994F894FFCFDD
S9030000FC
