:100000000C942A000C943C000C943C000C943C0092
:100010000C943C000C943C000C943C000C943C0070
:100020000C943C000C943C000C948F000C94CC007D
:100030000C943C000C943C000C943C000C943C0050
:100040000C943C000C943C000C943C000C943C0040
:100050000C943C0011241FBECFE5D8E0DEBFCDBF1D
:1000600020E0A0E6B0E001C01D92AD36B207E1F796
:100070000E9447000C9464010C9400008FB78068C4
:100080008FBF08959BB381E089278BBB08950E94A1
:100090003E000E94550068EE73E08AEF0E94600007
:1000A00082E490E00E948500FFCF81EF8ABB8FEF52
:1000B00087BB84BB81BB1BBA18BA15BA12BA0895A4
:1000C000482F9B0183B78F7B83BF83B7886083BF33
:1000D00083B78E7F83BF83B7826083BF83B78B7FF5
:1000E00083BF89B7826089BF4CBFA8EEB3E00E948E
:1000F0005501242F30E040E050E00E94330130935E
:100100006A002093690080E00895009731F0909391
:1001100066008093650080E0089581E008951F9255
:100120000F920FB60F9211242F933F934F935F932B
:100130006F937F938F939F93AF93BF93EF93FF93AF
:100140008091630090916400019690936400809385
:1001500063002091690030916A008217930758F07C
:10016000E0916500F0916600309729F010926400EC
:10017000109263000995FF91EF91BF91AF919F910C
:100180008F917F916F915F914F913F912F910F9040
:100190000FBE0F901F9018951F920F920FB60F92DF
:1001A00011242F933F934F935F936F937F938F937C
:1001B0009F93AF93BF93EF93FF93809161009091D2
:1001C0006200019690936200809361002091670025
:1001D000309168002115310599F420916B00309120
:1001E0006C008217930771F5E0916500F09166004D
:1001F000309709F00995109262001092610022C0B8
:1002000040916B0050916C008417950750F08091DD
:100210006000811106C081E080936000219522BFBB
:1002200011C080916000813069F4109262001092D8
:10023000610010926000E0916500F09166003097D7
:1002400009F00995FF91EF91BF91AF919F918F9127
:100250007F916F915F914F913F912F910F900FBEC2
:100260000F901F901895A1E21A2EAA1BBB1BFD012F
:100270000DC0AA1FBB1FEE1FFF1FA217B307E40785
:10028000F50720F0A21BB30BE40BF50B661F771FDD
:10029000881F991F1A9469F76095709580959095BD
:1002A0009B01AC01BD01CF010895A29FB001B39F96
:1002B000C001A39F700D811D1124911DB29F700D6F
:0C02C000811D1124911D0895F894FFCFBA
:00000001FF
