:100000000C942A000C9447000C9447000C94470071
:100010000C9447000C9447000C9447000C94470044
:100020000C9447000C9447000C9447000C94470034
:100030000C9447000C9447000C9447000C94470024
:100040000C947D000C9447000C9447000C944700DE
:100050000C94470011241FBECFE5D8E0DEBFCDBF12
:1000600010E0A0E6B0E0E2E4F4E002C005900D92FA
:10007000A236B107D9F720E0A2E6B0E001C01D9298
:10008000AB36B207E1F70E94DA010C941F020C9420
:10009000000087B1806487B987B18F7787B987B14E
:1000A0008F7D87B986B1887F86B986B1876086B92A
:1000B00086B1806886B90895909160009130E1F42E
:1000C00061157105C9F041155105B1F0109260003C
:1000D00070936500609364005093630040936200E6
:1000E00097B1907E97B997B1892B87B986B1806413
:1000F00086B986B1886086B908951F920F920FB6AF
:100100000F9211242F933F934F935F936F937F939D
:100110008F939F93AF93BF93EF93FF93E09164000E
:10012000F091650084B195B191838083E091620084
:10013000F0916300099581E08093600086B1877F2C
:1001400086B9FF91EF91BF91AF919F918F917F9170
:100150006F915F914F913F912F910F900FBE0F9034
:100160001F9018958FB780688FBF089588B38460FB
:1001700088BB8FEC97E00197F1F700C0000088B3CF
:100180008B7F88BB089598B39E7F98BB98B39D7F63
:1001900098BB82BB0E94B60008952FEB8AED90E0D9
:1001A000215080409040E1F700C0000088E30E94A9
:1001B000C3008FEC97E00197F1F700C000008CE0DE
:1001C0000E94C3008FEC97E00197F1F700C0000098
:1001D00081E00E94C3008FE99FE00197F1F700C022
:1001E000000086E00E94C300089598B3916098BB18
:1001F00098B39D7F98BB82BB0E94B6000895EF9292
:10020000FF920F931F93CF93DF93EC01633019F0AC
:100210006530E1F1BBC07C01F694E794F694E79475
:100220009701ABE7B4E10E9410028C011695079587
:1002300080E3800F0E94F50024E6209FC001219FEB
:10024000900D1124C81BD90B9E01ADECBCEC0E9493
:1002500010028C011695079516950795169507952A
:1002600080E3800F0E94F500C801880F991F000FDE
:10027000111F000F111F000F111F080F191FCE01B2
:10028000801B910B805D0E94F50080C07C01F6947C
:10029000E794F694E794F694E794F694E79497013C
:1002A000A7E4B3E00E9410028C01169507951695FD
:1002B00007951695079580E3800F0E94F50020E1D1
:1002C00037E2029FC001039F900D129F900D1124F1
:1002D000C81BD90B7E01F694E794F694E794F69444
:1002E000E7949701A5ECB0E20E9410028C011295F0
:1002F00002950F7001271F70012780E3800F0E9475
:10030000F50028EE33E0029FC001039F900D129F7D
:10031000900D1124C81BD90B7E01F694E794F69436
:10032000E7949701ABE7B4E10E9410028C011695A7
:10033000079580E3800F0E94F50024E6209FC0010E
:10034000219F900D1124C81BD90B9E01ADECBCEC74
:100350000E9410028C011695079516950795169523
:10036000079580E3800F0E94F500C801880F991F50
:10037000000F111F000F111F000F111F080F191F71
:10038000CE01801B910B805D0E94F500DF91CF9123
:100390001F910F91FF90EF90089581E085BB2FEFA3
:1003A00084E39CE0215080409040E1F700C00000D1
:1003B00015BA08950E9406020E94CD000E94B20064
:1003C00081E00E94C3000E94490081E00E94C300B6
:1003D0008FEC97E00197F1F700C000004DEC51E081
:1003E00068E670E080E00E945C0065E08091680053
:1003F000909169000E94FF009FEF24E38CE09150F0
:1004000020408040E1F700C00000DFCF1ABA8FEF34
:1004100087BB84BB81BB1BBA18BA15BA12BA089540
:10042000A29FB001B39FC001A39F700D811D112435
:10043000911DB29F700D811D1124911D0895F89496
:02044000FFCFEC
:020442000100B7
:00000001FF
