:100000000C942A000C9434000C9434000C943400AA
:100010000C9434000C9434000C9434000C94340090
:100020000C9434000C9434000C9434000C94340080
:100030000C9434000C9434000C9434000C94340070
:100040000C9434000C9434000C9434000C94340060
:100050000C94340011241FBECFE5D8E0DEBFCDBF25
:100060000E9436000C9466000C9400000E9444002C
:100070000E94510081E00E9461008FE19EE401979F
:10008000F1F700C00000F6CF8FEF8ABB9FEA97BB65
:1000900084BB8EEB81BB1BBA80E188BB15BA12BA58
:1000A00008958DB180618DB98DB181608DB98DB1AB
:1000B0008D7F8DB98EB18E7F8EB98DB180648DB9F3
:1000C00008958FB9779BFECF8FB10895F894FFCF35
:00000001FF
