S01300004750494F206472697665722E7372656336
S11300000C942A000C9434000C9434000C943400A6
S11300100C9434000C9434000C9434000C9434008C
S11300200C9434000C9434000C9434000C9434007C
S11300300C9434000C9434000C9434000C9434006C
S11300400C9434000C9434000C9434000C9434005C
S11300500C94340011241FBECFE5D8E0DEBFCDBF21
S11300600E94C7000C94E8000C940000813069F0F1
S113007028F0823089F08330B1F00895611102C014
S11300801ABA08958FEF8ABB0895611102C017BA96
S113009008958FEF87BB0895611102C014BA0895C3
S11300A08FEF84BB0895611102C011BA08958FEFD8
S11300B081BB0895813001F130F08230B1F1833099
S11300C009F44CC0089541110CC02AB381E090E0BA
S11300D002C0880F991F6A95E2F7809582238ABB34
S11300E008952AB381E090E002C0880F991F6A95B1
S11300F0E2F7822B8ABB089541110CC027B381E03B
S113010090E002C0880F991F6A95E2F780958223D8
S113011087BB089527B381E090E002C0880F991F40
S11301206A95E2F7822B87BB089541110CC024B372
S113013081E090E002C0880F991F6A95E2F78095EC
S1130140822384BB089524B381E090E002C0880F29
S1130150991F6A95E2F7822B84BB089541110CC064
S113016021B381E090E002C0880F991F6A95E2F7FD
S11301708095822381BB089521B381E090E002C081
S1130180880F991F6A95E2F7822B81BB089561E07D
S113019080E00E94360041E060E081E00E945A0065
S11301A060E082E00E9436001BBA989904C08BB3C9
S11301B081608BBB03C08BB38E7F8BBB9F9B04C0C2
S11301C08BB380688BBBF1CF8BB38F778BBBEDCFB9
S10701D0F894FFCFCD
S9030000FC
