S00C0000455854492E73726563DE
S11300000C942A000C94DE000C9407010C94340127
S11300100C943C000C943C000C943C000C943C006C
S11300200C943C000C943C000C943C000C943C005C
S11300300C943C000C943C000C943C000C943C004C
S11300400C943C000C943C000C943C000C943C003C
S11300500C943C0011241FBECFE5D8E0DEBFCDBF19
S113006020E0A0E6B0E001C01D92A636B207E1F799
S11300700E94E4010C9413020C940000823089F075
S113008018F4813031F025C0833099F08430C9F000
S113009020C085B78E7F85BF85B78D7F85BF80E003
S11300A0089585B7816085BF85B78D7F85BF80E062
S11300B0089585B78E7F85BF85B7826085BF80E050
S11300C0089585B7816085BF85B7826085BF80E06C
S11300D0089581E00895823089F018F4813031F078
S11300E025C0833099F08430C9F020C085B78B7F58
S11300F085BF85B7877F85BF80E0089585B7846015
S113010085BF85B7877F85BF80E0089585B78B7FDE
S113011085BF85B7886085BF80E0089585B7846012
S113012085BF85B7886085BF80E0089581E0089524
S1130130833019F0843031F00AC084B78F7B84BFD8
S113014080E0089584B7806484BF80E0089581E0EE
S11301500895823049F0833061F0813079F48BB7AF
S113016080648BBF80E008958BB780688BBF80E08C
S113017008958BB780628BBF80E0089581E0089575
S1130180009731F0909365008093640080E00895B7
S113019081E00895009731F09093630080936200AA
S11301A080E0089581E00895009731F09093610014
S11301B08093600080E0089581E008951F920F927B
S11301C00FB60F9211242F933F934F935F936F9326
S11301D07F938F939F93AF93BF93EF93FF93E0919C
S11301E06400F0916500309709F00995FF91EF9153
S11301F0BF91AF919F918F917F916F915F914F913B
S11302003F912F910F900FBE0F901F9018951F9242
S11302100F920FB60F9211242F933F934F935F9336
S11302206F937F938F939F93AF93BF93EF93FF93BA
S11302308091640090916500892B29F0E09162001F
S1130240F09163000995FF91EF91BF91AF919F9158
S11302508F917F916F915F914F913F912F910F906B
S11302600FBE0F901F9018951F920F920FB60F920A
S113027011242F933F934F935F936F937F938F93A7
S11302809F93AF93BF93EF93FF93809164009091FA
S11302906500892B29F0E0916000F09161000995D7
S11302A0FF91EF91BF91AF919F918F917F916F914A
S11302B05F914F913F912F910F900FBE0F901F9020
S11302C018958FB780688FBF0895813001F130F0A1
S11302D08230B1F1833009F44CC00895413059F4AF
S11302E02BB381E090E002C0880F991F6A95E2F772
S11302F0822B8BBB08952BB381E090E002C0880F62
S1130300991F6A95E2F7809582238BBB089541304B
S113031059F428B381E090E002C0880F991F6A95D0
S1130320E2F7822B88BB089528B381E090E002C0F5
S1130330880F991F6A95E2F78095822388BB0895F8
S1130340413059F425B381E090E002C0880F991F31
S11303506A95E2F7822B85BB089525B381E090E08E
S113036002C0880F991F6A95E2F78095822385BBA6
S11303700895413059F422B381E090E002C0880F1F
S1130380991F6A95E2F7822B82BB089522B381E01C
S113039090E002C0880F991F6A95E2F78095822346
S11303A082BB089541E060E080E00E946501089509
S11303B041E061E080E00E946501089541E060E071
S11303C082E00E94650108950E94090283E00E9470
S11303D03E0081E00E94A90082ED91E00E94C000ED
S11303E083E090E00E946B0082E00E94A90088ED07
S11303F091E00E94CA0083E090E00E94980083E0AC
S11304000E94A9008EED91E00E94D4000E94610137
S1130410FFCF8FEF8ABB17BA84BB11BA1BBA88BB54
S10D042015BA82BB0895F894FFCFCB
S9030000FC
