S00D000055534152542E7372656388
S11300000C942A000C9434000C9434000C943400A6
S11300100C9434000C9434000C9434000C9434008C
S11300200C9434000C9434000C9434000C9434007C
S11300300C9434000C9434000C9434000C9434006C
S11300400C9434000C9434000C9434000C9434005C
S11300500C94340011241FBECFE5D8E0DEBFCDBF21
S11300600E9436000C9469000C9400000E944B001E
S11300700E9456000E946500813321F48BB3816095
S11300808BBB05C0823319F48BB38E7F8BBB84E4A6
S11300900E946100EFCF8FEF8ABB87BB84BB8EEBDE
S11300A081BB1BBA18BA15BA12BA089586E880BD86
S11300B083E389B98AB188608AB98AB180618AB9CF
S11300C008955D9BFECF8CB908955F9BFECF8CB1E4
S10900D00895F894FFCF2F
S9030000FC
