S00F00004441435F4150502E737265630D
S11300000C942A000C9434000C9434000C943400A6
S11300100C9434000C9434000C9434000C9434008C
S11300200C9434000C9434000C9434000C9434007C
S11300300C9434000C9434000C9434000C9434006C
S11300400C9434000C9434000C9434000C9434005C
S11300500C94340011241FBECFE5D8E0DEBFCDBF21
S11300600E9436000C9445000C9400008FEF84BB72
S113007080E085BB2FEF30E792E021503040904084
S1110080E1F700C000008F5FF4CFF894FFCFCB
S9030000FC
