:100000000C942A000C943C000C943C000C943C0092
:100010000C943C000C943C000C943C000C943C0070
:100020000C943C000C943C000C943C000C943C0060
:100030000C943C000C943C000C943C000C943C0050
:100040000C943C000C943C000C943C000C943C0040
:100050000C943C0011241FBECFE5D8E0DEBFCDBF1D
:1000600020E0A0E6B0E001C01D92A336B207E1F7A0
:100070000E9491010C9423020C94000087B18064CB
:1000800087B987B18F7787B987B1806287B986B121
:10009000887F86B986B1876086B986B1806886B95F
:1000A000089597B1907E97B997B1892B87B986B19A
:1000B000806486B980E090E0DC0103C00196A11D58
:1000C000B11D349906C0803523EC9207A105B10516
:1000D000A9F78035934CA105B10551F086B1806137
:1000E00086B985B190E0FB019183808380E008951B
:1000F00081E0089588B3846088BB8FEC97E0019716
:10010000F1F700C0000088B38B7F88BB089598B3D7
:100110009E7F98BB98B39D7F98BB82BB0E947A005C
:1001200008952FEB8AED90E0215080409040E1F758
:1001300000C0000088E30E9487008FEC97E00197E1
:10014000F1F700C000008CE00E9487008FEC97E080
:100150000197F1F700C0000081E00E9487008FE95D
:100160009FE00197F1F700C0000086E00E94870041
:10017000089598B3916098BB98B39D7F98BB82BB5C
:100180000E947A000895EF92FF920F931F93CF93EE
:10019000DF93EC01633019F06530E1F1BBC07C0105
:1001A000F694E794F694E7949701ABE7B4E10E94E4
:1001B00014028C011695079580E3800F0E94B90008
:1001C00024E6209FC001219F900D1124C81BD90B4C
:1001D0009E01ADECBCEC0E9414028C0116950795B3
:1001E000169507951695079580E3800F0E94B90034
:1001F000C801880F991F000F111F000F111F000F5A
:10020000111F080F191FCE01801B910B805D0E94EA
:10021000B90080C07C01F694E794F694E794F694D4
:10022000E794F694E7949701A7E4B3E00E941402E0
:100230008C0116950795169507951695079580E3F9
:10024000800F0E94B90020E137E2029FC001039FA6
:10025000900D129F900D1124C81BD90B7E01F694AE
:10026000E794F694E794F694E7949701A5ECB0E24E
:100270000E9414028C01129502950F7001271F70C5
:10028000012780E3800F0E94B90028EE33E0029F2F
:10029000C001039F900D129F900D1124C81BD90B14
:1002A0007E01F694E794F694E7949701ABE7B4E106
:1002B0000E9414028C011695079580E3800F0E941E
:1002C000B90024E6209FC001219F900D1124C81B76
:1002D000D90B9E01ADECBCEC0E9414028C0116956A
:1002E0000795169507951695079580E3800F0E9450
:1002F000B900C801880F991F000F111F000F111FAF
:10030000000F111F080F191FCE01801B910B805D7C
:100310000E94B900DF91CF911F910F91FF90EF9054
:1003200008950E940A020E94910081E00E948700C5
:100330000E943E0081E00E9487008FEC97E00197C9
:10034000F1F700C0000060E670E082E00E9451001A
:1003500080916000909161009C012150310921320F
:10036000310518F48FEF85BB44C09C01235231093D
:100370002931310518F48FE785BB3BC09C012D5313
:1003800031092432310518F48FE385BB32C09C015A
:10039000225631092833310518F48FE185BB29C075
:1003A0009C012B5931092632310518F48FE085BBA9
:1003B00020C09C01225C31092A31310518F487E004
:1003C00085BB17C09C012D5D31092431310518F41E
:1003D00083E085BB0EC09C01225F310926303105C8
:1003E00018F481E085BB05C0895F9109069708F480
:1003F00015BA65E080916000909161000E94C30091
:100400009FEF24E38CE0915020408040E1F700C052
:10041000000090CF1ABA8FEF87BB84BB81BB1BBA99
:1004200018BA15BA12BA0895A29FB001B39FC001BD
:10043000A39F700D811D1124911DB29F700D811D10
:0A0440001124911D0895F894FFCFD8
:00000001FF
